{
  "transactions": [
    {
      "hash": "0x4a061c51690cf91a4caf6e795eea1748d776cae61b731d4f603d201a9013cad0",
      "transactionType": "CALL",
      "contractName": null,
      "contractAddress": "0x779877a7b0d9e8603169ddbd7836e478b4624789",
      "function": "transferAndCall(address,uint256,bytes)",
      "arguments": [
        "0x9DdfaCa8183c41ad55329BdeeD9F6A8d53168B1B",
        "3000000000000000000",
        "0x8b1689feeddc1886e9d8491581849da4bb34adbad5cd2d34b907527cba6d1a26"
      ],
      "transaction": {
        "from": "0xe9ea8b6c38647db018a37f1db89303522c3f860c",
        "to": "0x779877a7b0d9e8603169ddbd7836e478b4624789",
        "gas": "0x14cbb",
        "value": "0x0",
        "input": "0x4000aea00000000000000000000000009ddfaca8183c41ad55329bdeed9f6a8d53168b1b00000000000000000000000000000000000000000000000029a2241af62c0000000000000000000000000000000000000000000000000000000000000000006000000000000000000000000000000000000000000000000000000000000000208b1689feeddc1886e9d8491581849da4bb34adbad5cd2d34b907527cba6d1a26",
        "nonce": "0x4c",
        "chainId": "0xaa36a7"
      },
      "additionalContracts": [],
      "isFixedGasLimit": false
    }
  ],
  "receipts": [
    {
      "status": "0x1",
      "cumulativeGasUsed": "0xcae049",
      "logs": [
        {
          "address": "0x779877a7b0d9e8603169ddbd7836e478b4624789",
          "topics": [
            "0xddf252ad1be2c89b69c2b068fc378daa952ba7f163c4a11628f55a4df523b3ef",
            "0x000000000000000000000000e9ea8b6c38647db018a37f1db89303522c3f860c",
            "0x0000000000000000000000009ddfaca8183c41ad55329bdeed9f6a8d53168b1b"
          ],
          "data": "0x00000000000000000000000000000000000000000000000029a2241af62c0000",
          "blockHash": "0x6feb4ebd0bb18db41ad0311bcc4598a44f1fae232486e22a978c7d56c7ac4ffc",
          "blockNumber": "0x881210",
          "blockTimestamp": "0x6891de18",
          "transactionHash": "0x4a061c51690cf91a4caf6e795eea1748d776cae61b731d4f603d201a9013cad0",
          "transactionIndex": "0x76",
          "logIndex": "0xdc",
          "removed": false
        },
        {
          "address": "0x779877a7b0d9e8603169ddbd7836e478b4624789",
          "topics": [
            "0xe19260aff97b920c7df27010903aeb9c8d2be5d310a2c67824cf3f15396e4c16",
            "0x000000000000000000000000e9ea8b6c38647db018a37f1db89303522c3f860c",
            "0x0000000000000000000000009ddfaca8183c41ad55329bdeed9f6a8d53168b1b"
          ],
          "data": "0x00000000000000000000000000000000000000000000000029a2241af62c0000000000000000000000000000000000000000000000000000000000000000004000000000000000000000000000000000000000000000000000000000000000208b1689feeddc1886e9d8491581849da4bb34adbad5cd2d34b907527cba6d1a26",
          "blockHash": "0x6feb4ebd0bb18db41ad0311bcc4598a44f1fae232486e22a978c7d56c7ac4ffc",
          "blockNumber": "0x881210",
          "blockTimestamp": "0x6891de18",
          "transactionHash": "0x4a061c51690cf91a4caf6e795eea1748d776cae61b731d4f603d201a9013cad0",
          "transactionIndex": "0x76",
          "logIndex": "0xdd",
          "removed": false
        },
        {
          "address": "0x9ddfaca8183c41ad55329bdeed9f6a8d53168b1b",
          "topics": [
            "0x1ced9348ff549fceab2ac57cd3a9de38edaaab274b725ee82c23e8fc8c4eec7a",
            "0x8b1689feeddc1886e9d8491581849da4bb34adbad5cd2d34b907527cba6d1a26"
          ],
          "data": "0x00000000000000000000000000000000000000000000000029a2241af62c000000000000000000000000000000000000000000000000000053444835ec580000",
          "blockHash": "0x6feb4ebd0bb18db41ad0311bcc4598a44f1fae232486e22a978c7d56c7ac4ffc",
          "blockNumber": "0x881210",
          "blockTimestamp": "0x6891de18",
          "transactionHash": "0x4a061c51690cf91a4caf6e795eea1748d776cae61b731d4f603d201a9013cad0",
          "transactionIndex": "0x76",
          "logIndex": "0xde",
          "removed": false
        }
      ],
      "logsBloom": "0x00000004000000000000000000001000000000000020000000000000020000000000000000000000000000000000000000000000000000000000000000001000000000000000000000000008000000000000000000000000000020000020000008000000000000000000000000000000000000000000000000000010000040000000000000000000000000010000800000000020000000000000000000000000000000000000000000000000010000000000000010000000000004000000000000000002000000000000000000000000000000000000000100010800000000000010000000000000800000000000000000000000000000000000000000000000",
      "type": "0x2",
      "transactionHash": "0x4a061c51690cf91a4caf6e795eea1748d776cae61b731d4f603d201a9013cad0",
      "transactionIndex": "0x76",
      "blockHash": "0x6feb4ebd0bb18db41ad0311bcc4598a44f1fae232486e22a978c7d56c7ac4ffc",
      "blockNumber": "0x881210",
      "gasUsed": "0xf0e5",
      "effectiveGasPrice": "0x42cf56a3",
      "from": "0xe9ea8b6c38647db018a37f1db89303522c3f860c",
      "to": "0x779877a7b0d9e8603169ddbd7836e478b4624789",
      "contractAddress": null
    }
  ],
  "libraries": [],
  "pending": [],
  "returns": {},
  "timestamp": 1754390041,
  "chain": 11155111,
  "commit": null
}